:020000040000FA
:08000000803102288731EC2F4A
:100BAE0016302100970008000034403414345434B9
:100BBE00703021009900980122009601080024004F
:100BCE001E151E19EB2DEC2DE82D080086311B2667
:100BDE0085318531DF2585318531D7258531080071
:100BEE0086310126853124001E141E18FF2D002E7D
:100BFE00FC2D080024001E081F39031D072E082E89
:100C0E00012E1C190B2E0C2E012E080008308631D9
:100C1E003A2686310830F20072082000AA0006300B
:100C2E00890B172E0032080022008C018D01FF3037
:100C3E0021008C00FE3023008D001F308C0022001E
:100C4E009D019E010800F0007008240099001C18F8
:100C5E00312E322E2E2E1E1B352E362E322E863154
:100C6E00012686310800F1008531F72586317E3068
:100C7E0086312A268631710886312A2686318531BB
:100C8E00E62586310630890B4A2E00320800612E89
:100C9E0078088400790885000008FA007A08FB00BD
:100CAE000130F8070030F93DF201F20A7B08863177
:100CBE008D26863178088400790885001200031D80
:100CCE00692E6A2E4F2E08002000A4002908A300CA
:100CDE002808A2002708A1002608A00003307802E9
:100CEE00031C7A2E7B2E7D2EF801F80A7808203E02
:100CFE0086008701010824078038F9007908A500CD
:100D0E00F201250886318D2686310800F50075081A
:100D1E00F03920002A047204F3007308F6007508F7
:100D2E00F3000330F335FF3E031D992E7335F03972
:100D3E002A047204F4007408F700760886313A2605
:100D4E0086317608043886313A2686317608FB39A4
:100D5E0086313A2686314230890BB32E003277081F
:100D6E0086313A2686317708043886313A2686311E
:100D7E007708FB3986313A26863108008531ED2514
:100D8E008631243024008D00210095131330240069
:100D9E009A0028309D009E019C01873100278631E4
:100DAE0086310D268631F801003086316B2686316C
:100DBE000630F8008830F90086314E2686310B3029
:100DCE00FD002630FC005E30890BEB2EFC0BEB2E6B
:100DDE00FD0BEB2EF801033086316B268631003089
:100DEE00F8008830F90086314E268631FD2E80318E
:100DFE0002280530F3000F30F200F130890B052F79
:100E0E00F20B052FF30B052F0000303086313A26FA
:100E1E008731343086313A268731303086313A2662
:100E2E0087310D30F200FC30890B1B2FF20B1B2F7C
:100E3E00303086313A268731343086313A26873142
:100E4E00303086313A2687310D30F200FC30890B76
:100E5E002E2FF20B2E2F303086313A26873134303A
:100E6E0086313A268731303086313A268731C8307E
:100E7E00890B3F2F203086313A2687312430863138
:100E8E003A268731203086313A2687310630890B53
:100E9E004E2F0032203086313A268731243086316B
:100EAE003A268731203086313A2687314230890BF7
:100EBE005E2F0032803086313A268731843086317B
:100ECE003A268731803086313A2687310030863196
:100EDE003A268731043086313A2687310030863102
:100EEE003A2687314230890B7A2F0032C030863154
:100EFE003A268731C43086313A268731C030863162
:100F0E003A268731003086313A26873104308631D1
:100F1E003A268731003086313A2687314230890BA6
:100F2E00962F0032103086313A26873114308631B2
:100F3E003A268731103086313A2687310D30F2004D
:100F4E00FC30890BA82FF20BA82F003086313A26E1
:100F5E008731043086313A268731003086313A2681
:100F6E0087314230890BB92F0032603086313A26F4
:100F7E008731643086313A268731603086313A26A1
:100F8E008731003086313A268731043086313A2651
:100F9E008731003086313A2687314230890BD52F82
:100FAE000032203086313A268731243086313A2677
:100FBE008731203086313A2687310830F200CA3028
:100FCE00890BE72FF20BE72F08008531DB258731E0
:100FDE00A6008531DC258731A7008531DD258731D7
:100FEE00A8008531DE258731A900AA0120008631AF
:100FFE00C52E313432343A3430343034003448343F
:06100E0049345A3400349D
:020000040001F9
:04000E00E43FFF1EAE
:00000001FF
