:020000040000FA
:08000000803102288731EC2F4A
:100ABA0016302100970008000034403414345434AE
:100ACA007030210099009801220096010800240044
:100ADA001E151E19712D722D6E2D08008531A02547
:100AEA00853185316525853185315D25853108005A
:100AFA0085318725853124001E141E18852D862DE3
:100B0A00822D080024001E081F39031D8D2D8E2DED
:100B1A00872D1C19912D922D872D080008308531BB
:100B2A00BF2585310830F2007208FD000630890BB6
:100B3A009C2D0032080022008C018D01FF3021001B
:100B4A008C00FE3023008D001F308C0022009D0196
:100B5A009E010800F0007008240099001C18B62DA8
:100B6A00B72DB32D1E1BBA2DBB2DB72D8531872569
:100B7A0085310800F10085317D2585317E3085314A
:100B8A00AF25853171088531AF25853185316C25D1
:100B9A0085310800853173258531243024008D0084
:100BAA0021009513133024009A0028309D009E01DD
:100BBA009C01863190268531853193258531F20154
:100BCA0000308531F32585310030F2008830F3009A
:100BDA00863140268531F02D80310228F900200027
:100BEA002308F8002208F7002108F6002008F5007B
:100BFA0003307202031C022E032E052EF201F20AA2
:100C0A007208753E86008701010879078838F30063
:100C1A007308FA007A08F839F3007308FB007A08B7
:100C2A00F3000430F336890B172E7308F839F400F1
:100C3A007408FC007B088531BF2585317B080438A0
:100C4A008531BF2585317B08FB398531BF25853143
:100C5A004230890B2E2E00327C088531BF25853122
:100C6A007C0804388531BF2585317C08FB398531FC
:100C7A00BF2585310800862E720884007308850016
:100C8A000008F4007408F6000130F2070030F33D62
:100C9A007608F0390138F4007408F7007608F40091
:100CAA000330F435FF3E031D562E7435F0390138F2
:100CBA00F5007508F80077087D048531BF2586316F
:100CCA0077087D0404388531BF2586317708FB39DA
:100CDA007D048531BF2586314230890B722E003260
:100CEA0078087D048531BF25863178087D0404386B
:100CFA008531BF2586317808FB397D048531BF25CA
:100D0A00863172088400730885001200031D8E2E36
:100D1A008F2E412E08000530F3000F30F200F1301B
:100D2A00890B952EF20B952EF30B952E0000303081
:100D3A008531BF2586310630890BA12E0032343029
:100D4A008531BF2586310630890BA92E0032303015
:100D5A008531BF2586310D30F200FC30890BB32E68
:100D6A00F20BB32E30308531BF2586310630890B20
:100D7A00BC2E003234308531BF2586310630890BCE
:100D8A00C42E003230308531BF2586310D30F20055
:100D9A00FC30890BCE2EF20BCE2E30308531BF259A
:100DAA0086310630890BD72E003234308531BF2583
:100DBA0086310630890BDF2E003230308531BF256F
:100DCA008631C830890BE72E20308531BF25863120
:100DDA000630890BEE2E003224308531BF2586314C
:100DEA000630890BF62E003220308531BF25863138
:100DFA000630890BFE2E003220308531BF25863120
:100E0A000630890B062F003224308531BF25863102
:100E1A000630890B0E2F003220308531BF258631EE
:100E2A004230890B162F003280308531BF2586313A
:100E3A000630890B1E2F003284308531BF2586315A
:100E4A000630890B262F003280308531BF25863146
:100E5A0000308531BF2586310630890B322F0032AA
:100E6A0004308531BF2586310630890B3A2F00328E
:100E7A0000308531BF2586314230890B422F00323E
:100E8A00C0308531BF2586310630890B4A2F0032A2
:100E9A00C4308531BF2586310630890B522F003286
:100EAA00C0308531BF25863100308531BF25863176
:100EBA000630890B5E2F003204308531BF2586311A
:100ECA000630890B662F003200308531BF25863106
:100EDA004230890B6E2F003210308531BF258631A2
:100EEA000630890B762F003214308531BF258631C2
:100EFA000630890B7E2F003210308531BF258631AE
:100F0A000D30F200FC30890B882FF20B882F00304D
:100F1A008531BF2586310630890B912F0032043086
:100F2A008531BF2586310630890B992F0032003072
:100F3A008531BF2586314230890BA12F00326030BE
:100F4A008531BF2586310630890BA92F00326430DE
:100F5A008531BF2586310630890BB12F00326030CA
:100F6A008531BF25863100308531BF25863106306F
:100F7A00890BBD2F003204308531BF2586310630FA
:100F8A00890BC52F003200308531BF2586314230AA
:100F9A00890BCD2F003220308531BF2586310630AE
:100FAA00890BD52F003224308531BF258631063092
:100FBA00890BDD2F003220308531BF25863108307C
:100FCA00F200CA30890BE72FF20BE72F08008531B0
:100FDA0061258731A000853162258731A1008531DD
:100FEA0063258731A200853164258731A300FD017D
:0E0FFA0020008531CF2D483449345A3400345C
:020000040001F9
:04000E00E43FFF1EAE
:00000001FF
