:020000040000FA
:0400000080312728FC
:100008007E1480310B1F09280A2825282100941CFA
:100018000E280F281A282000941C132814281A28A0
:100028007B088A007A080A00803125282100141CE0
:100038001E281F2825282000141C232824282528AA
:1000480014287E1009008031292865308400833007
:1000580085001200CB001200CC001200CD00120067
:10006800CE001200CF001200D000FA01FB012030B0
:100078008400003085001D3083316B2380317E1071
:1000880020008131FC2983317D238031003A031916
:100098004E284F287F285C288331AB2380319B284A
:1000A8008331A62380319B2883319C2380319B2870
:1000B80020002F08F1007108F9000630203E860064
:1000C8008701413F8A00403F0A008031F200F30176
:1000D8007308003A0319712858287208013A03195D
:1000E8005828033A03195028013A03195428073AA3
:1000F80003195828582820003C101730203E860045
:100108008701403F84008501810A00088331B523B7
:10011800803101302000B8020030B93B380839047A
:10012800031D972898289A2806309B280330080032
:100138008331D0238031F000200037088600870102
:10014800700881000130F0007008B7070130B8026C
:100158000030B93B380839040319B328B428B92842
:100168008331C22380310530E128BC15C32883318F
:100178008D238031E128833192238031E1282C08B6
:10018800F0007008F90021088A0020080A00803170
:10019800F100F2017208003A0319D328BF28710848
:1001A800013A0319BF28033A0319BB28013A031976
:1001B800BB28073A0319BF28BF28080004302000CD
:1001C800C3000C30C2003330890BE828C20BE82882
:1001D800C30BE82800323830813179218031393039
:1001E80081317921803114308131792180317F301A
:1001F8008131792180316A3081317921803107302C
:100208002000C3001730C2006A30890B0929C20BCD
:100218000929C30B0929000038308131792180313F
:100228000C3081317921803101308131792180315F
:1002380008002000BC152D298331A12381314B29C9
:100248008331CD23813103304B2983319C23813184
:100258004B292C08F0007008F90021088A002008B2
:100268000A008131F100F2017208003A03193D29B0
:1002780029297108013A03192929033A0319202960
:10028800013A03192029073A0319242929290800C2
:100298002000C1008331772381313F302000BD0029
:1002A8000030BE0083314723813140302000BD003B
:1002B8000030BE0083314723813120004108BF0050
:1002C800C0013F08BD004008BE008331472381318B
:1002D80083317123813134302000BF00F130890B24
:1002E8007329BF0B7329003208002000C100833135
:1002F800772381313F302000BD000030BE008331BC
:100308004723813100302000BD00BE0083314723E0
:10031800813120004108BF00C0013F08BD004008EE
:10032800BE008331472381318331712381313430D9
:100338002000BF00F130890B9F29BF0B9F29003295
:10034800080020003C100230F0007008BB00B429FF
:100358008331A1238131D02983319C238131D02954
:100368002E08F0007008F9000430203E860087014E
:10037800413F8A00403F0A008131F100F2017208D2
:10038800003A0319C829B0297108023A0319AC299F
:10039800013A0319AC29B02908008331CA238131F5
:1003A80020003C1CD829D929E62983317D238131B5
:1003B800003A0319E029E129E6290F30F40074080E
:1003C8002000BA0020003A08F400F501F435F50DD4
:1003D8004830740784008230753D8500013F8A00EB
:1003E800003F0A008131F60076082000BA000800B4
:1003F8008331032381318331292381314B308600B6
:100408000030870045308400003085000630200029
:10041800C40016001A00C40B0D2A8031E220813175
:100428008331832381310230813179218131453013
:100438008231682281311F2A80312728F400700810
:1004480071040319282A292A3A2A7435203E86007D
:1004580087017008C03F7108C13F7208F300740833
:100468002C3E8600870173088100472A7435203E98
:1004780086008701DE30C03F0330C13F74082C3E40
:100488008600870181010800B03403343E34033408
:100498004F340334473400349C3400345E3403341E
:1004A8001D340134AB340334A6340334A13403348B
:1004B8009C34033497340334923403348D34033436
:1004C80088340334A53401342000C300772A430854
:1004D80086008701010881314C21823101302000DA
:1004E800C2004208C3074308860087010108031DAC
:1004F8007E2A7F2A6B2A0800790886008701403FF8
:10050800F000413FF1007908023E860087010108AA
:100518008231F32282310030F500F600F701833191
:10052800102382310230080022008C018D01FF3037
:1005380021008C00FF308D00DA3023008D001F3041
:100548008C00243024008D008C0121009517220096
:100558009D019E0108000130F0000030F10079088B
:100568008231F32282310030F500F600F701833141
:1005780010238231043008000230F0000030F1000E
:1005880079088231F32282310030F500F600F70154
:10059800833110238231023008000130F00000302E
:1005A800F10079088231F32282310030F500F6003B
:1005B800F701833110238231023008000230F00045
:1005C8000030F10079088231F32282310030F500E1
:1005D800F600F70183311023823104300800F3005C
:1005E8002000BC1DF82AF92A022B7308F2007208B1
:1005F800B7007108B9007008B800BC110800833151
:1006080035238331823198228331833157238331D3
:100618008331BA23833108007608F1007508F000A9
:100628007708F8007808F2000030823122228331FE
:10063800080024001419212B222B1D2B16081F3902
:10064800031D272B282B1D2B080024009C01283074
:100658009D009E0127309A009D1221000D158D16D0
:10066800080024009C0108309D009E0127309A0054
:100678009D12080020003C140314360D8331B52365
:1006880083310530080083311D23833120003D0864
:1006980024009900080020003C1436358331B52326
:1006A8008331033008007830210099009801220036
:1006B8009601080020003C108331D3238331043095
:1006C8000800683465346C346C346F34003464006A
:1006D80080010131890B6C2B003483311D23833158
:1006E80024001E15080083311D23833124001E14A5
:1006F800080024001E0E890C890C013908000130FD
:1007080081317921833108002000BC10BB010E30F3
:1007180008008331C6238331093008008331C6239A
:1007280083310A3008008331C22383310530080041
:100738008331D6238331003008008331D9238331B4
:10074800013008008331D923833102300800833116
:10075800D9238331013008002000BC10BB010E30C2
:100768000800F000700824009900080016302100E5
:10077800970008008131D1218331080024009E129E
:100788001E16080024009E161E16080020001410CD
:100798000800200014140800240019080800240088
:1007A8009E15080024001E15080024009E14080049
:0807B8000530080001300800C3
:020000040001F9
:04000E00E43FFF1EAE
:00000001FF
