:020000040000FA
:08000000803102288731ED2F49
:100B720016302100970008000034403414345434F5
:100B8200703021009900980122009601080024008B
:100B92001E151E19CD2DCE2DCA2D08000830863106
:100BA200172685310630890BD42D00320800853195
:100BB200F82585318531C12585318531B9258531C4
:100BC20008008531EC25853124001E141E18EA2DFB
:100BD200EB2DE72D080024001E081F39031DF22DFE
:100BE200F32DEC2D1C19F62DF72DEC2D080022000B
:100BF2008C018D01FF3021008C00FE3023008D001E
:100C02001F308C0022009D019E010800F000700838
:100C1200240099001C180E2E0F2E0B2E1E1B122EB6
:100C2200132E0F2E8531EC2586310800F100853117
:100C3200E22586317E30863107268631710886317B
:100C4200072686318531C825863108008531D825A9
:100C52008631243024008D002100951313302400A6
:100C62009A0028309D009E019C0186319126863192
:100C72008531CF258631F201003086314426863116
:100C8200412E80310228F90020002308F8002208B2
:100C9200F7002108F6002008F50003307202031C59
:100CA200532E542E562EF201F20A7208753E860019
:100CB2008701010879078838F3007308FA007A0877
:100CC200F839F3007308FB007A08F3000430F336B6
:100CD200890B682E7308F839F4007408FC007B084D
:100CE2008631172686317B080438863117268631ED
:100CF2007B08FB398631172686314230890B7F2EDD
:100D020000327C088631172686317C080438863109
:100D1200172686317C08FB39863117268631080072
:100D22000530F3000F30F200F130890B962EF20BF2
:100D3200962EF30B962E0000303086311726863120
:100D42000630890BA22E00323430863117268631C6
:100D52000630890BAA2E00323030863117268631B2
:100D62000D30F200FC30890BB42EF20BB42E303071
:100D72008631172686310630890BBD2E003234307B
:100D82008631172686310630890BC52E0032303067
:100D92008631172686310D30F200FC30890BCF2EBA
:100DA200F20BCF2E30308631172686310630890B72
:100DB200D82E003234308631172686310630890B20
:100DC200E02E00323030863117268631C830890B4A
:100DD200E82E20308631172686310630890BEF2E19
:100DE200003224308631172686310630890BF72EE1
:100DF200003220308631172686310630890BFF2ECD
:100E0200003220308631172686310630890B072FB3
:100E1200003224308631172686310630890B0F2F97
:100E2200003220308631172686314230890B172F47
:100E3200003280308631172686310630890B1F2F0B
:100E4200003284308631172686310630890B272FEF
:100E520000328030863117268631003086311726DF
:100E620086310630890B332F003204308631172643
:100E720086310630890B3B2F00320030863117262F
:100E820086314230890B432F0032C030863117261B
:100E920086310630890B4B2F0032C430863117263B
:100EA20086310630890B532F0032C0308631172627
:100EB200863100308631172686310630890B5F2F46
:100EC200003204308631172686310630890B672FAF
:100ED200003200308631172686314230890B6F2F5F
:100EE200003210308631172686310630890B772F73
:100EF200003214308631172686310630890B7F2F57
:100F0200003210308631172686310D30F200FC3067
:100F1200890B892FF20B892F0030863117268631F3
:100F22000630890B922F0032043086311726863123
:100F32000630890B9A2F003200308631172686310F
:100F42004230890BA22F003260308631172686315B
:100F52000630890BAA2F003264308631172686317B
:100F62000630890BB22F0032603086311726863167
:100F720000308631172686310630890BBE2F0032AB
:100F820004308631172686310630890BC62F00328F
:100F920000308631172686314230890BCE2F00323F
:100FA20020308631172686310630890BD62F003243
:100FB20024308631172686310630890BDE2F003227
:100FC20020308631172686310830F200CA30890B6C
:100FD200E82FF20BE82F08008531BD258731A000EC
:100FE2008531BE258731A1008531BF258731A20019
:0E0FF2008531C0258731A30020008631272ECF
:020000040001F9
:04000E00E43FFF1EAE
:00000001FF
